:020000040000FA
:0400000080313B28E8
:100008007E1480312000911D0A280B2820280930F1
:1000180078020318102811281E2824001108F0005F
:100028007808203E86008701700881000130F000C2
:100038007008F80720009111921D232824283928D8
:1000480009307902031829282A2837282400190892
:10005800F0007908293E8600870170088100013088
:10006800F0007008F907200092117E100900803115
:100078003D28F801F9012030840000308500123055
:100088008131DD2180317E10200080314B28230012
:100098008C0122008C018E0123008E01DF30F600D6
:1000A800760822008E0521008E160C150E148E146B
:1000B8000E153C002208E0390238A2001F08E0397A
:1000C80002389F002008E0391038A0001D08E039E8
:1000D80010389D002108E0391138A1001E08E039C8
:1000E80012389E0024009413141315161508F039BD
:1000F80004389500171695169C131C131D161D0819
:10010800F03904389D001F169D16FF309100FF300E
:100118009900F801F9010930F6007608F100293054
:100128008131B82180310930F6007608F10020309D
:100138008131B821803114308131A12180312000F2
:10014800911192112100911592150B178B170930F7
:1001580078020318B028B128B72809307902031C9F
:10016800B628B728AB280B13F7017708293E813149
:10017800392180310130F6007608F7070930770217
:10018800031CC728C828B928F7017708203E813101
:10019800392180310130F6007608F70709307702F7
:1001A800031CD728D828C92820002903031DDD28C7
:1001B800DE28202942302A06031DE328E4282029C6
:1001C8000A298131CD218031202924089F3A031939
:1001D800EE2820292308F73A0319E5282029F828CA
:1001E80081318921803120292408BC3A031900294A
:1001F800403A0319052920292308FE3A0319E5285E
:1002080020292308F63A0319F428202922085A3A03
:1002180003190F2920292108413A0319F328123A12
:100228000319F828303A0319E928103A0319F8286D
:100238000A3A0319F82820290930F6007608F1004F
:1002480020308131B82180310930F6007608F1007C
:1002580029308131B8218031F801F901200091114C
:1002680092110B17AB2880313B28F40074088600E4
:10027800870101080F39F1000430F135890B412954
:100288007408860087010108F2000430F236890BF1
:100298004A2972080F397104F3007408860087012F
:1002A8007308810074088600870101083339F1005A
:1002B8000230F135890B5D29740886008701010831
:1002C800F2000230F236890B66297208333971045C
:1002D800F30074088600870173088100740886009B
:1002E800870101085539F1000130F135890B792969
:1002F800740886008701013655397104F2007408C4
:1003080086008701720881000800DF30F400740855
:1003180021008E051530F5004B30F400BE30890BF6
:100328009329F40B9329F50B9329003221008E169B
:1003380014308131A12181310800F3007308031DB5
:10034800A629A729A829B7292930F2009630F10053
:100358007F30890BAD29F10BAD29F20BAD290000D7
:100368000130F302A2290800F300F401C629740839
:100378007307F20072088600870181010130F200DC
:100388007208F40771087402031CCB29CC29BB2915
:100398000800DF30F400740821008E050230813136
:1003A800A121813121008E1614308131A1218131A2
:0E03B8000800640080010131890BDE29003449
:020000040001F9
:08000E008CDF33EFFFDFFFFF81
:00000001FF
